:100000000C947C0D0C94AD0D0C94AD0D0C94AD0DB9
:100010000C94AD0D0C94AD0D0C94AD0D0C94AD0D78
:100020000C94AD0D0C94AD0D0C94AD0D0C94AD0D68
:100030000C94AD0D0C94AD0D0C94AD0D0C94AD0D58
:100040000C94AD0D0C94E2200C94AD0D0C94AD0D00
:100050000C94AD0D0C94AD0D0C94724B0C946D5E24
:100060000C94AD0D0C943D170C94AD0D0C94AD0D8E
:100070000C94AD0D0C94AD0D0C94AD0D0C94AD0D18
:100080000C94AD0D0C94AD0D0C94AD0D0C94AD0D08
:100090000C94AD0D0C94AD0D0C94AD0D0C94AD0DF8
:1000A0000C94AD0D0C94AD0D0C94AD0D0C94AD0DE8
:1000B0000C94AD0D0C94AD0D0C94AD0D0C94AD0DD8
:1000C0000C94AD0D0C94AD0D0C94AD0D0C94AD0DC8
:1000D0000C94AD0D0C94AD0D0C94AD0D0C94AD0DB8
:1000E0000C94AD0D70177617871792179A17B017E3
:1000F0009E17B017A217A617B017AC17A658A95885
:1001000098589C58A258E058AD58B158B758BB58A9
:10011000BF58C558C958CD58E058D358D758DB58A0
:10012000DC59E159E659F059FA59735A045A0C5AF4
:10013000145A1E5A285A325A415A4B5A735A555A0F
:100140005F5A695A084AD73B3BCE016E84BCBFFD5B
:10015000C12F3D6C74319ABD56833DDA3D00C77F97
:1001600011BED9E4BB4C3E916BAAAABE0000008030
:100170003F05A84CCDB2D44EB93836A9020C50B9BF
:10018000918688083CA6AAAA2ABE000000803F00EB
:100190004E414E494E495459494E46CDCCCC3D0A6C
:1001A000D7233C17B7D13877CC2B329595E6241F4F
:1001B000B14F0A000020410000C84200401C462008
:1001C000BCBE4CCA1B0E5AAEC59D74434F4D4D5517
:1001D0004E49434154494F4E0044525952554E00E6
:1001E0004552524F525300494E464F004543484FE7
:1001F0000047322F47332062616420706172616D65
:1002000065746572730A00000048420000484200AD
:10021000008040000000002569730025696D2025DD
:100220006973002569682025696D2025697300259B
:100230006964202569682025696D2025697300257A
:10024000697920256964202569682025696D202544
:100250006973005072696E742074696D653A20008C
:10026000EC01E701E001D901CB016F66660044456E
:100270004255473A004D3131332053006F6B002017
:10028000573A00544845524D414C5F50524F5445E7
:100290004354494F4E004155544F5245504F5254CC
:1002A0005F53445F53544154555300454D455247A5
:1002B000454E43595F5041525345520043415345C7
:1002C0005F4C494748545F4252494748544E455352
:1002D0005300544F47474C455F4C494748545300DF
:1002E000534F4654574152455F504F574552004275
:1002F00055494C445F50455243454E54004C455679
:10030000454C494E475F44415441005A5F50524F5B
:100310004245004155544F4C4556454C00505249BA
:100320004E545F4A4F420050524F4752455353007C
:100330004155544F5245504F52545F54454D500013
:10034000564F4C554D455452494300454550524F28
:100350004D0053455249414C5F584F4E5F584F46F0
:1003600046004649524D574152455F4E414D453A30
:100370004D61726C696E20312E312E39202847690B
:10038000746875622920534F555243455F434F446B
:10039000455F55524C3A68747470733A2F2F6769F1
:1003A000746875622E636F6D2F4D61726C696E4655
:1003B00069726D776172652F4D61726C696E205044
:1003C000524F544F434F4C5F56455253494F4E3A4C
:1003D000312E30204D414348494E455F54595045D8
:1003E0003A3344205072696E7465722045585452F5
:1003F000554445525F434F554E543A312055554967
:10040000443A63656465326132662D343161322D60
:10041000343734382D396231322D63353563363215
:100420006633363766660A002F2F200020540020DE
:100430005200416363656C65726174696F6E3A2046
:100440005000000000000000000000000000546F99
:100450006F206661722066726F6D207265666572CC
:10046000656E636520706F696E740A00FFFFFF2080
:100470005A00205900580020204D61783A20002071
:100480005A00205900580020204D696E3A20004F34
:100490006E20004F666600536F667420656E64734D
:1004A000746F70733A200020466C6F773A2000001A
:1004B0000125301D0CFF2829FF24311C0BFF452787
:1004C000FF232F1B0AFF4443FFFFFF04030806021C
:1004D000FF222B1A4142FF033809FF3620643A00FD
:1004E00020693A0020703A00496E76616C69642098
:1004F00065787472756465720A0043290A00616246
:100500006C656420286D696E2074656D70200043F1
:100510006F6C6420657874727564657320617265B0
:1005200020004E6F2063617365206C696768740AF0
:1005300000454550524F4D204F4B0A0041637469AE
:1005400076652045787472756465723A2000496E4C
:1005500076616C69642065787472756465720A00EE
:100560006F6B00205A3A0020593A0020583A006533
:100570006E6473746F7073206869743A2000656EDE
:100580007175657565696E672022005072696E74B9
:1005900065722073746F7070656420647565207473
:1005A0006F206572726F72732E20466978207468AE
:1005B00065206572726F7220616E642075736520AC
:1005C0004D39393920746F20726573746172742EDD
:1005D000202854656D706572617475726520697349
:1005E0002072657365742E205365742069742061D0
:1005F000667465722072657374617274696E6729BE
:100600000A004E6F20436865636B73756D207769D0
:100610007468206C696E65206E756D6265722C2041
:100620004C617374204C696E653A200063686563A1
:100630006B73756D206D69736D617463682C204CEC
:10064000617374204C696E653A20004C696E6520B8
:100650004E756D626572206973206E6F74204C61F7
:100660007374204C696E65204E756D6265722B3116
:100670002C204C617374204C696E653A20004D311A
:1006800031300020496E76616C696420657874723F
:10069000756465722000000000000000000000008A
:1006A00000000000664300009B4300006143486F68
:1006B0006D696E67206661696C6564002C20002C92
:1006C000200050726F7465637465642050696E0A0F
:1006D0000020573A00205A3A0020593A0020436F30
:1006E000756E7420583A0020453A00205A3A00208E
:1006F000593A00583A003A004361703A0052657323
:10070000656E643A200020746F6F206C6F6E6720F6
:10071000657874727573696F6E2070726576656E38
:100720007465640A0020636F6C6420657874727568
:1007300073696F6E2070726576656E7465640A0009
:10074000627573793A2070617573656420666F72A3
:1007500020696E7075740A00627573793A20706151
:100760007573656420666F7220757365720A006226
:100770007573793A2070726F63657373696E670A77
:10078000004B494C4C45442E20004B494C4C2063B7
:10079000617573656420627920746F6F206D756375
:1007A0006820696E6163746976652074696D65207F
:1007B0002D2063757272656E7420636F6D6D616E4E
:1007C000643A20005072696E7465722068616C74BE
:1007D00065642E206B696C6C28292063616C6C65E4
:1007E00064210A002020506C616E6E65724275664D
:1007F00066657242797465733A20002046726565B9
:10080000204D656D6F72793A2000436F6D70696C91
:1008100065643A204F637420203220323031380A28
:1008200000207C20417574686F723A207374657083
:1008300068656E20726F7373690A00323031382D2B
:1008400030382D303100204C617374205570646154
:100850007465643A2000312E312E390A004D6172E0
:100860006C696E0020536F66747761726520526503
:100870007365740A00205761746368646F6720525F
:10088000657365740A002042726F776E206F75740D
:100890002052657365740A002045787465726E6134
:1008A0006C2052657365740A00506F7765725570DD
:1008B0000A0073746172740A005761726E696E6720
:1008C0003A20486F6D696E672042756D70204469EB
:1008D0007669736F72203C20310A00020204000026
:1008E000A0400000A040000000400000664300005F
:1008F0009B43000061434572726F72207772697486
:10090000696E6720746F20454550524F4D210A0093
:1009100024F4D43050C38E20C2A24017828B7011B1
:10092000127A910D816CD90AA861E108C75866074F
:10093000615143061E4B5D05C145A7041A411104D0
:10094000093D9803713931034036DB02653391026A
:10095000D4305402802E1D02632CEE01752AC5018D
:10096000B028A001102781018F2564012B244B01A1
:10097000E0223401AC211F018D200D01801FFC00FD
:10098000841EED00971DDF00B81CD200E61BC600D8
:10099000201BBC00641AB200B219A8000A19A000FA
:1009A0006A189900D117910040178B00B516840082
:1009B00031167E00B31579003A157300C7146F0025
:1009C00058146A00EE1366008813630025135E0056
:1009D000C7125B006C12570015125400C111510070
:1009E00070114F0021114B00D61049008D104700A7
:1009F0004610440002104200C00F4000800F3E002D
:100A0000420F3C00060F3B00CB0E3800930E370020
:100A10005C0E3500270E3400F30D3200C10D31009D
:100A2000900D3000600D2E00320D2D00050D2C00B4
:100A3000D90C2B00AE0C2900850C29005C0C27007A
:100A4000350C27000E0C2600E80B2400C40B2400F4
:100A5000A00B23007D0B23005A0B2100390B210032
:100A6000180B2000F80A1F00D90A1E00BB0A1E003E
:100A70009D0A1D00800A1D00630A1C00470A1B0016
:100A80002C0A1B00110A1A00F7091A00DD091900C7
:100A9000C4091900AB091900920917007B09180055
:100AA000630917004C0916003609160020091600C4
:100AB0000A091500F5081500E0081400CC08140018
:100AC000B8081400A4081400900813007D08120050
:100AD0006B08130058081200460812003408110071
:100AE000230811001208110001081100F00710007E
:100AF000E0071000D0071000C0071000B0070F007B
:100B0000A107100091070E0083070F0074070F0064
:100B100065070E0057070E0049070E003B070D0042
:100B20002E070E0020070D0013070D0006070D000D
:100B3000F9060C00ED060D00E0060C00D4060C00D2
:100B4000C8060C00BC060C00B0060C00A4060B0086
:100B500099060C008D060B0082060B0077060B0031
:100B60006C060B0061060A0057060B004C060A00D3
:100B700042060A0038060A002E060A0024060A0069
:100B80001A060A001006090007060A00FD050900FA
:100B9000F4050900EB050900E2050900D905090083
:100BA000D0050900C7050900BE050900B505080004
:100BB000AD050800A50509009C050800940508007E
:100BC0008C050800840508007C05080074050800F1
:100BD0006C050700650508005D050700560508005F
:100BE0004E050700470507004005080038050700C7
:100BF000310507002A050700230507001C0506002C
:100C0000160507000F050700080506000205070086
:100C1000FB040600F5040700EE040600E8040600E5
:100C2000E2040700DB040600D5040600CF0406003A
:100C3000C9040600C3040600BD040600B70406008C
:100C4000B1040500AC040600A6040600A0040500DB
:100C50009B04060095040500900406008A04050024
:100C600085040500800406007A040500750405006B
:100C7000700405006B0405006604050061040500AE
:100C80005C04050057040500520405004D040500EE
:100C900048040500430405003E0404003A0405002E
:100CA00035040500300404002C040500270404006A
:100CB000230405001E0404001A04040016040500A1
:100CC000110404000D0404000904050004040400D8
:100CD00000040400FC030400F8030400F40304000F
:100CE000F0030400EC030400E8030400E403040040
:100CF000E0030400DC030400D8030400D403040070
:100D0000D0030400CC030400C8030300C5030300A0
:100D100024F404D9201BC40C5C0E9804C4095F029F
:100D200065077101F405F900FB04B300480487006E
:100D3000C10369005803550003034500BE023A0091
:100D40008402310053022A002902250004022000F7
:100D5000E4011C00C8011900AF011700980114003C
:100D600084011300710110006101100051010E0097
:100D700043010D0036010B002B010B0020010B007D
:100D8000150109000C01090003010800FB0008001F
:100D9000F3000800EB000700E4000600DE00060098
:100DA000D8000600D2000600CC000500C7000500F0
:100DB000C2000500BD000400B9000400B500040035
:100DC000B1000400AD000400A9000400A500030068
:100DD000A20003009F0004009B0003009800030092
:100DE0009500020093000300900003008D000200B4
:100DF0008B000300880002008600020084000300CC
:100E0000810002007F0002007D0002007B000200E2
:100E100079000200770001007600020074000200F1
:100E200072000100710002006F0002006D000100FD
:100E30006C0002006A000100690002006700010006
:100E4000660001006500010064000200620001000C
:100E500061000100600001005F0002005D00010010
:100E60005C0001005B0001005A0001005900010014
:100E70005800010057000100560001005500010014
:100E80005400010053000000530001005200010013
:100E900051000100500001004F0001004E00000011
:100EA0004E0001004D0001004C0001004B0000000D
:100EB0004B0001004A000100490001004800000009
:100EC0004800010047000100460000004600010004
:100ED00045000000450001004400010043000000FF
:100EE00043000100420000004200010041000000F8
:100EF00041000100400001003F0000003F000100F0
:100F00003E0000003E0001003D0000003D000100E9
:100F10003C0000003C0000003C0001003B000000E1
:100F20003B0001003A0000003A00010039000000D7
:100F300039000100380000003800000038000100CE
:100F400037000000370001003600000036000000C6
:100F500036000100350000003500000035000100BA
:100F600034000000340000003400010033000000B1
:100F700033000000330001003200000032000000A6
:100F8000320001003100000031000000310001009A
:100F90003000000030000000300001002F00000091
:100FA0002F0000002F0000002F0001002E00000085
:100FB0002E0000002E0001002D0000002D0000007A
:100FC0002D0000002D0001002C0000002C0000006E
:100FD0002C0000002C0001002B0000002B00000062
:100FE0002B0000002B0001002A0000002A00000056
:100FF0002A0000002A00010029000000290000004A
:10100000290000002900000029000100280000003C
:10101000280000002800000028000000280001002F
:101020002700000027000000270000002700000024
:101030002700010026000000260000002600000016
:101040002600000026000100250000002500000009
:1010500025000000250000002500000025000100FB
:1010600024000000240000002400000024000000F0
:1010700024000100230000002300000023000000E2
:1010800023000000230000002300000023000100D3
:1010900022000000220000002200000022000000C8
:1010A00022000000220001002100000021000000B9
:1010B00021000000210000002100000021000000AC
:1010C000210001002000000020000000200000009E
:1010D0002000000020000000200000002000000090
:1010E000200001001F0000001F0000001F00000082
:1010F0001F0000001F0000001F0000001F00010073
:101100001E0000001E0000001E0000001E00000067
:10111000043700001E290000511B00005810000079
:1011200010090000CC04000078020000410100001A
:101130002066697273740A005A0059005800486F9B
:101140006D65200020746F6F206C6F6E672065786E
:1011500074727573696F6E2070726576656E7465F2
:10116000640A0020636F6C6420657874727573691B
:101170006F6E2070726576656E7465640A006563D3
:10118000686F3A00454550524F4D20646174617359
:10119000697A65206572726F722E0A00290A002032
:1011A00062797465733B20637263200053657474C5
:1011B000696E67732053746F726564202800290A72
:1011C000002062797465733B206372632000207392
:1011D000746F7265642073657474696E67732072CE
:1011E0006574726965766564202800202863616CE7
:1011F00063756C6174656429210A0020213D20001B
:10120000454550524F4D20435243206D69736D61E7
:10121000746368202D202873746F72656429200020
:101220002053697A653A2000496E6465783A200057
:10123000204D61726C696E3D563535290A0028458E
:101240004550524F4D3D00454550524F4D2076651B
:101250007273696F6E206D69736D617463682000CD
:1012600048617264636F6465642044656661756C8F
:10127000742053657474696E6773204C6F61646584
:10128000640A00B80B0000B80B00006400000010F6
:101290002700000000FA430000FA430000A04000CD
:1012A00000C8410000A0420000A0420000C8440065
:1012B00000E64320286D6D290020440020490020CD
:1012C000204D3330312050005049442073657474F0
:1012D000696E67733A0A00205A0020590020204D99
:1012E000323036205800486F6D65206F6666736532
:1012F000743A0A00204500205A0020590020580066
:1013000020540020530020204D3230352051002041
:10131000453C6D61785F655F6A65726B3E00205881
:101320003C6D61785F785F6A65726B3E20593C6DF9
:1013300061785F795F6A65726B3E205A3C6D6178B7
:101340005F7A5F6A65726B3E00416476616E6365C9
:10135000643A20513C6D696E5F7365676D656E74AC
:101360005F74696D655F75733E20533C6D696E5F98
:1013700066656564726174653E20543C6D696E5F9C
:1013800074726176656C5F66656564726174653EF2
:101390000020540020520020204D323034205000D4
:1013A000416363656C65726174696F6E2028756E48
:1013B0006974732F7332293A20503C7072696E74CD
:1013C0005F616363656C3E20523C72657472616359
:1013D000745F616363656C3E20543C747261766532
:1013E0006C5F616363656C3E0A00204500205A0013
:1013F00020590020204D3230312058004D6178694D
:101400006D756D20416363656C65726174696F6EA3
:101410002028756E6974732F7332293A0A002045AB
:1014200000205A0020590020204D3230332058002F
:101430004D6178696D756D2066656564726174656E
:10144000732028756E6974732F73293A0A0020453A
:1014500000205A0020590020204D393220580053D6
:10146000746570732070657220756E69743A0A0035
:1014700020204D3230302044300A0020204D3230C0
:10148000302044002044697361626C65640A004640
:10149000696C616D656E742073657474696E6773D1
:1014A0003A002020473231202020203B005452496E
:1014B000474745524544006F70656E003A20007AF8
:1014C0005F6D696E00795F6D696E00785F6D696E42
:1014D000005265706F7274696E6720656E64737414
:1014E0006F70207374617475730A001000C9021064
:1014F000012C014001220170011801B0010E01F020
:101500000104015002FA00B002F0003003E600D0FE
:1015100003DC009004D2007005C800A006BE0000E5
:1015200008B400B009AA00D00BA000600E960060BD
:10153000118C000015820020197800C01D6E00A0DB
:10154000226400B0275A00902C500000314600E081
:10155000343C0010383200903A2800603C1E00A055
:101560003D1400803E0A00203F00006265640A00CE
:101570002C2073797374656D2073746F707065645B
:1015800021204865617465725F49443A20004265D4
:10159000642068656174696E67206661696C656462
:1015A0000048656174696E67206661696C656400F6
:1015B00045312048656174696E67206661696C65B4
:1015C000640048656174696E67206661696C656472
:1015D000004B494C4C45442E200030031001D003F1
:1015E00002017004F7001005ED00B005E50050069B
:1015F000DD003008CC00100ABE00F00BB300700E06
:10160000A700F0109D0070139400F0158C00D01707
:101610008700B0198200901B7D00301C7B00D01C1D
:101620007A00701D7800101E7700B01E7500501FE4
:101630007400F01F72009020710030216F00D021E3
:101640006E0070226C0010236B00B02369005024E0
:101650006800F02466009025650030266400D026DE
:1016600062007027610010285F00B0285E005029DA
:101670005C00F0295B00902A5A00302B5800D02BD8
:101680005700702C5500102D5400B02D5200502ED4
:101690005100F02E4F00902F4D0030304C00D030D4
:1016A0004A007031480010324700B03245005033D4
:1016B0004300F033410090343F0030353E00D035D8
:1016C0003C007036390010373700B03735005038DD
:1016D0003300F038300090392D00303A2A00D03AEB
:1016E0002700703B2400103C2000503D1700F03DC7
:1016F0001100903E0900003F00004531205448454C
:10170000524D414C2052554E41574159004245449B
:1017100020544845524D414C2052554E4157415955
:1017200000546865726D616C2052756E61776179E5
:10173000004531204572723A204D415854454D5074
:10174000004572723A204D415854454D5020424553
:1017500044004D415854454D502074726967676587
:10176000726564004531204572723A204D494E54ED
:10177000454D50004572723A204D494E54454D50EA
:1017800020424544004D494E54454D5020747269E5
:1017900067676572656400202F002042403A002090
:1017A000403A004D6963726F737465707320756E93
:1017B000617661696C61626C650A0045313A2000AE
:1017C00045303A20005A3A2000593A2000583A2031
:1017D000004D53312C4D53322050696E730A002353
:1017E000646566696E652044454641554C545F4BBF
:1017F00064200023646566696E6520444546415552
:101800004C545F4B69200023646566696E65204413
:10181000454641554C545F4B70200050494420418F
:1018200075746F74756E652066696E69736865643A
:10183000212050757420746865206C617374204B8E
:10184000702C204B6920616E64204B6420636F6EA6
:101850007374616E74732066726F6D2062656C6F55
:101860007720696E746F20436F6E66696775726169
:1018700074696F6E2E680A00504944204175746F78
:1018800074756E65206661696C6564212074696D8C
:10189000656F75740A00453120544845524D414CDE
:1018A0002052554E4157415900546865726D616C24
:1018B0002052756E61776179004531204865617409
:1018C000696E67206661696C65640048656174696A
:1018D0006E67206661696C656400504944204175FB
:1018E000746F74756E65206661696C65642120543F
:1018F000656D706572617475726520746F6F2068B4
:101900006967680A00204B643A2000204B693A203E
:1019100000204B703A20000A20436C6173736963A6
:1019200020504944200A002054753A2000204B756D
:101930003A2000206D61783A2000206D696E3A20CF
:101940000020643A200020626961733A2000504907
:1019500044204175746F74756E65206661696C65AD
:101960006421204261642065787472756465722018
:101970006E756D6265720A00504944204175746F3E
:1019800074756E652073746172740A000000210022
:10199000240027002A002D00300033000101000040
:1019A000040107010A0100002200250028002B0085
:1019B0002E003100340002010000050108010B0176
:1019C000000020002300260029002C002F003200F8
:1019D00000010000030106010901050505050705D1
:1019E00008080808020202020A0A0808040404049B
:1019F00001010101010101010303030303030303C7
:101A0000040707070C0C0C0C0C0C0C0C0202020255
:101A100006060606060606060B0B0B0B0B0B0B0B3E
:101A200007070A0A0A0A0A0A050505040404080841
:101A300001021020200808102040102040800201E0
:101A400002010804020101020408102040808040C5
:101A500020100804020180040201804020100804C4
:101A60000201080402010102040810204080010262
:101A70000408102040801008040880102040044012
:101A800080102040048000000A0B02090C0D0E0893
:101A90000703040100000000000000000000000037
:101AA0000000000000000000000000000000000036
:101AB00000001211100000000000000000000000F3
:101AC0000000000000000000000000000000000016
:101AD000000000000000000000000000556E6B6E6A
:101AE0006F776E20636F6D6D616E643A20220045E2
:101AF00072726F723A00F57311241FBECFEFD1E2FC
:101B0000DEBFCDBF00E00CBF12E0A0E0B2E0EAEE25
:101B1000FEEF00E00BBF02C007900D92A63EB1079A
:101B2000D9F72CE0A6EEB2E001C01D92A63CB207A8
:101B3000E1F71DE0CCE7DDE000E006C021970109F8
:101B4000802FFE010E94337FCB37D10780E008074A
:101B5000A9F70E94E95E0C94737F0C9400008091B9
:101B60000D0690910E06981759F0E92FF0E0E35713
:101B7000FA4F80819F5F9F7790930E0690E00895C3
:101B80008FEF9FEF0895CF93DF9380E00E94D142C3
:101B9000CFE0D6E0688379838A839B8381E00E94CB
:101BA000D1426C837D838E839F8382E00E94D142E9
:101BB000688779878A879B87DF91CF910895FF9205
:101BC0000F931F93CF93DF93FC0120812B3319F1E7
:101BD000D0911505D430F8F4F62EBC01C09127053C
:101BE0000C2F10E0F0E6CF9FC00111248D569C4FC2
:101BF0000E94537FF801E757FC4FF082CF5FC4305B
:101C000018F4C093270502C010922705DF5FD09318
:101C1000150581E001C080E0DF91CF911F910F9108
:101C2000FF900895CF92DF92EF920F931F93CF937F
:101C3000DF9300D01F92CDB7DEB7E090A00C1982E1
:101C40001A821B821C82CE0101966C010AE312E00B
:101C50002DEA3CE049EA5CE065EA7CE081EA9CE050
:101C60000E94882A0F900F900F900F90DF91CF91D4
:101C70001F910F91EF90DF90CF9008950F931F93D6
:101C8000CF93DF9394E0899FE00111248E01015AE4
:101C90001C4FFE01ED5AFC4FDE01AC5EBC4F2D9196
:101CA0003D914D915C9160817181828193810E940F
:101CB0003F7CF8016083718382839383FE01EA563F
:101CC000F94F85919591A591B491FE01E559FC4F8D
:101CD00080839183A283B383FE01EE55F94F8591F2
:101CE0009591A591B491CA5FDD4F88839983AA83AA
:101CF000BB83DF91CF911F910F9108952DEA3CE0B6
:101D000049EA5CE065EA7CE081EA9CE00C94862983
:101D10002F923F924F925F926F927F929F92AF92DB
:101D2000BF92CF92DF92EF92FF920F931F93CF93C8
:101D3000DF93CDB7DEB728970FB6F894DEBF0FBE9E
:101D4000CDBF1A012B01922EF32EC82ED12CF601F5
:101D5000E459FB4FE491AA24A3941E160CF4A12C81
:101D6000BB24B39420E030E0A901C201B1010E947C
:101D7000657E18160CF0B12CCC0CDD1CCC0CDD1CD7
:101D8000C6018F55934F3C01FC01108211821282D3
:101D90001382B4DFF3012082318242825382E090C9
:101DA000A00C20E030E0A901B801892D9F2D0E94F0
:101DB000157881110AC0F601E95FFD4F8591959173
:101DC000A591B4918C019A2EFB2EC801A92DBF2D8F
:101DD0008D839E83AF83B88719821A821B821C82EF
:101DE000CE0101966C018E010B5F1F4F2DEA3CE086
:101DF00049EA5CE065EA7CE081EA9CE00E94882A8E
:101E00000E947629AB1459F080911305882319F0AC
:101E10001092130504C08EEA96E00E949E1D28963B
:101E20000FB6F894DEBF0FBECDBFDF91CF911F91EB
:101E30000F91FF90EF90DF90CF90BF90AF909F9069
:101E40007F906F905F904F903F902F90089580917A
:101E5000230590912405009731F04AE050E060E0BE
:101E600070E00C94947660E070E0CB01089580916E
:101E7000230590912405009731F04AE050E060E09E
:101E800070E00C94697560E070E0CB010895EFDFBD
:101E900097FD0AC0ECDF6F3F71058105910509F0E0
:101EA0002CF4E5DF862F089580E008958FEF0895E4
:101EB0008091230590912405892B31F0E8DF91E092
:101EC000811103C090E001C091E0892F08950F9324
:101ED0001F93CF9380912305909124050097F1F0F3
:101EE000FC018F01C1912C2F2F7D89F0C53411F099
:101EF000C536B9F7F801108260E070E00E941674F0
:101F0000F801C083562F472F382F292F0BC060E0D0
:101F100070E0CF911F910F910C94167450E040E047
:101F200030E020E0652F742F832F922FCF911F91E7
:101F30000F91089581548A3108F042C0E82FF0E0F3
:101F400040910003509101036091020370910303DB
:101F500004C076956795579547958A95D2F7842F53
:101F6000817040FF2FC0EA51FD4F9081992309F104
:101F7000E0918E0CF0918F0CE90FF11D908120ED16
:101F8000290F2A3098F09E3211F491810CC09D32B5
:101F900011F09B3271F4918120ED290F2A3030F03D
:101FA0009E3239F4928190539A3018F42E2F9F2F3D
:101FB00002C020E090E0209323059093240508952B
:101FC00080E008950895B6DF882341F081E02091F4
:101FD000230530912405232B09F480E008959F9276
:101FE000AF92BF92CF92DF92EF92FF920F931F9327
:101FF000CF93DF9380E4A82E82E0B82E00E91CE0A6
:10200000C1EADCE09FE5C92E93E0D92E2DE8E22E4F
:1020100023E0F22E912CF50181915F018BDF882363
:1020200001F155DFF7012081211104C020919103B6
:10203000222339F0288139814A815B810E943F7CCB
:102040000AC0F3E09F1639F0F60120813181428108
:1020500053810E943E7CF801608371838283938365
:1020600009C088819981AA81BB81F801808391830D
:10207000A283B38393940C5F1F4F2496F4E0CF0E9A
:10208000D11C2FEFE21AF20A84E09812C4CF86E442
:102090009ADF8823B9F01BDF20E030E0A9010E941D
:1020A000657E18167CF413DF20E030E040E752E450
:1020B0000E941B7D60933A0270933B0280933C0226
:1020C00090933D02DF91CF911F910F91FF90EF9080
:1020D000DF90CF90BF90AF909F9008959091C000F7
:1020E00095FFFCCF8093C60008958F929F92AF9288
:1020F000BF92CF92DF92EF92FF920F931F93CF93F5
:10210000DF93CDB7DEB728970FB6F894DEBF0FBECA
:10211000CDBF80913902882321F080E99CE00E94A4
:10212000341980910D0C83FDA1C0C0909C0CD090FF
:102130009D0CE0909E0CF0909F0C2091AD0C309186
:10214000AE0C4091AF0C5091B00CC701B6010E948B
:102150001578882309F48AC08091E50681112FC083
:102160006091E6067091E7068091E8069091E90695
:102170000E94837D20912E0230912F0262177307F7
:10218000F4F4C092AD0CD092AE0CE092AF0CF09291
:10219000B00CEEE7F1E184918F010F5F1F4F8823B0
:1021A00019F09CDFF801F7CFE5E2F7E084918F01A9
:1021B0000F5F1F4F882319F091DFF801F7CF809050
:1021C0009C0C90909D0CA0909E0CB0909F0C209128
:1021D000AD0C3091AE0C4091AF0C5091B00CC501DC
:1021E000B4010E943E7C6B017C0120E030E0A9013B
:1021F0000E94657E87FF04C0F7FAF094F7F8F09428
:10220000E091A00C84E0E89FF0011124E65DFD4F11
:102210002081318142815381C701B6010E947A78C1
:1022200020E030E048E453E40E94657E1816F4F4A0
:102230008092AD0C9092AE0CA092AF0CB092B00C0C
:10224000EEE7F1E184918F010F5F1F4F882319F0B2
:1022500045DFF801F7CFE6E0F7E084918F010F5FEB
:102260001F4F882319F03ADFF801F7CF60913E0243
:1022700070913F02072E000C880B990B0E941B786F
:1022800020913A0230913B0240913C0250913D0234
:102290000E947A782AE037ED43E25CE30E947A7884
:1022A0006D837E838F839887E090A00C19821A82B9
:1022B0001B821C82CE0101966C018E010B5F1F4FA9
:1022C0002CE93CE048E95CE064E97CE080E99CE0E2
:1022D0000E94882A80E1E0E9FCE0A1EABCE00190EC
:1022E0000D928A95E1F728960FB6F894DEBF0FBEDF
:1022F000CDBFDF91CF911F910F91FF90EF90DF90B5
:10230000CF90BF90AF909F908F900895CF93DF9321
:10231000EFEEFAE18491EF012196882319F0DEDED9
:10232000FE01F8CFE2ECF6E08491EF0121968823DC
:1023300019F0D4DEFE01F8CFDF91CF910895CF924E
:10234000DF92EF92FF920F931F93CF93DF938091D1
:102350001505843008F0FEC002DCAC0197FDFAC020
:10236000982F2091BA0C3091BB0C8A3019F09D3017
:1023700009F0BFC010928C052115310519F40E9497
:102380009F4FE5CFF901E45DFA4F10821092BB0C2C
:102390001092BA0CCCE2D5E0FE018191803211F4AA
:1023A000EF01FACF8E3409F07EC0209709F47BC08C
:1023B0006EE776E0CE010E94CD778C01892B41F04B
:1023C0006EE470E0CE0104960E94487F009709F405
:1023D000CE014AE050E060E070E001960E9469752D
:1023E000609328057093290580932A0590932B0507
:1023F000C090BC0CD090BD0CE090BE0CF090BF0C17
:102400002FEFC21AD20AE20AF20A6C157D058E0578
:102410009F0529F0012B19F48BE496E02AC06AE2AB
:1024200070E0CE010E94687F9C01009701F1982F17
:102430009C1B10E0992339F09150FE01E90FF11D2A
:1024400080811827F7CF4AE050E060E070E0C901D2
:1024500001960E946975012F10E020E030E06017BE
:1024600071078207930779F08CE296E002C082E060
:1024700096E0DF91CF911F910F91FF90EF90DF9049
:10248000CF900C94B75E8091280590912905A0917A
:102490002A05B0912B058093BC0C9093BD0CA093A2
:1024A000BE0CB093BF0C8091140281111DC067E473
:1024B00070E0CE010E94487F0097B1F04AE050E002
:1024C00060E070E001960E946975643071058105D5
:1024D000910550F4EBE8F5E08491EF012196882313
:1024E00019F0FCDDFE01F8CF61E08CE295E067DBDE
:1024F0002ECF2F3531050CF02ACF9C35B9F42FDBC8
:1025000097FD25CF20918C05211121CF2091BA0C68
:102510003091BB0CA9014F5F5F4F5093BB0C4093B0
:10252000BA0CF901E45DFA4F808311CF9B3319F4A3
:1025300081E080938C0580918C05811108CFC901C1
:1025400001969093BB0C8093BA0CF901E45DFA4FAD
:102550004083FDCEDF91CF911F910F91FF90EF90BF
:10256000DF90CF900895BF92CF92DF92EF92FF92CB
:102570000F931F93CF93DF93CDB7DEB76E970FB650
:10258000F894DEBF0FBECDBF609125057091260582
:102590006115710551F14DE150E0CE0101967C01CC
:1025A0000E94BE771E8EF7018F010E191F09B19090
:1025B000BB2021F19AE0B912F7CF20C0B7018EE716
:1025C00095E00E94722882E289DD8AE087DDBB20E7
:1025D00051F10F5F1F4F8091250590912605080F3F
:1025E000191F109326050093250581E020912505EC
:1025F00030912605232BD1F480E018C0F701E00FBD
:10260000F11F108260E0C701DADA882371F3EEE788
:10261000F1E184916F019FEFC91AD90A882371F201
:102620005DDDF601F6CF00E010E0DBCF6E960FB671
:10263000F894DEBF0FBECDBFDF91CF911F910F91F8
:10264000FF90EF90DF90CF90BF9008958F929F9270
:10265000AF92BF92EF92FF920F931F93CF93DF93AE
:10266000CDB7DEB7A0970FB6F894DEBF0FBECDBFD3
:10267000611571058105910589F100E0842E912C89
:10268000A12CB12C102FEE24E394F12CEC0EFD1EA6
:10269000E00EF11C07FDFA94A50194010E94037C51
:1026A000F7016083B901CA010F5F611571058105EA
:1026B000910541F71F3F21F1E1E0F0E0EC0FFD1F34
:1026C000E10FF11D17FDFA9580818A3010F097E334
:1026D00001C090E3890F02DD1150ECCF80E3A0969A
:1026E0000FB6F894DEBF0FBECDBFDF91CF911F9123
:1026F0000F91FF90EF90BF90AF909F908F90EECC96
:10270000A0960FB6F894DEBF0FBECDBFDF91CF917C
:102710001F910F91FF90EF90BF90AF909F908F907F
:102720000895EF92FF920F931F93CF93DF937C0155
:1027300084E549DCD82F882321F1A9DBC82F18169E
:10274000E4F4EEE7F1E184918F010F5F1F4F8823DE
:1027500019F0C4DCF801F7CF8DE4C0DCB70180E0EC
:1027600090E04AE073DF6C2FCC0F770B83E896E0A4
:102770000E9459288AE0B2DC08C080938703D0E029
:1027800004C08091A00C809387038D2FDF91CF919F
:102790001F910F91FF90EF900895CF92DF92EF92EB
:1027A000FF926B017C0197FF0AC08DE297DCF094E9
:1027B000E094D094C094C11CD11CE11CF11C4AE0EF
:1027C000C701B601FF90EF90DF90CF903FCFCF933E
:1027D000DF9380910D0680930E06EDEFF6E0849175
:1027E000EF012196882319F079DCFE01F8CF809162
:1027F000BC0C9091BD0CA091BE0CB091BF0CBC0163
:10280000CD016F5F7F4F8F4F9F4FC7DF8AE066DC40
:10281000E0911405F0E0E757FC4F8081882319F020
:10282000DF91CF91B3C5DF91CF910895FF920F93C0
:102830001F93CF93DF93F82E092F162FE8EFF6E0C2
:102840008491EF012196882319F048DCFE01F8CF2E
:10285000EF2DF02F8491EF012196882319F03EDCB3
:10286000FE01F8CFE6EFF6E08491EF012196882390
:1028700019F034DCFE01F8CF612F70E080E090E0C9
:102880008CDF8AE0DF91CF911F910F91FF9026CCD2
:102890004F925F926F927F928F929F92AF92BF9270
:1028A000CF92DF92EF92FF92CF93DF9320915F035D
:1028B0003091600340916103509162036091A10CDB
:1028C0007091A20C8091A30C9091A40C0E943F7C6B
:1028D000AB01BC0183EF96E00E943C28209163038A
:1028E0003091640340916503509166036091A50C9B
:1028F0007091A60C8091A70C9091A80C0E943F7C2F
:10290000AB01BC018FEE96E00E943C28209167034A
:10291000309168034091690350916A036091A90C5A
:102920007091AA0C8091AB0C9091AC0C0E943F7CF2
:10293000AB01BC018BEE96E00E943C284091AD0CAF
:102940005091AE0C6091AF0C7091B00C87EE96E098
:102950000E943C2880916F00982F927081FF05C0E3
:1029600080916F008D7F80936F00409004035090A2
:102970000503609006037090070380900803909011
:102980000903A0900A03B0900B03C0900C03D090F1
:102990000D03E0900E03F0900F03992329F080912E
:1029A0006F00826080936F00EDEDF6E08491EF019F
:1029B0002196882319F092DBFE01F8CFC301B20102
:1029C000ECDEE9EDF6E08491EF012196882319F021
:1029D00085DBFE01F8CFC501B401DFDEE5EDF6E0F1
:1029E0008491EF012196882319F078DBFE01F8CF5E
:1029F000C701B601D2DE8AE0DF91CF91FF90EF9060
:102A0000DF90CF90BF90AF909F908F907F906F900E
:102A10005F904F9063CB2F923F924F925F926F9255
:102A20007F928F929F92AF92BF92CF92DF92EF925E
:102A3000FF920F931F93CF93DF93CDB7DEB76297CB
:102A40000FB6F894DEBF0FBECDBF8DE690E069DE15
:102A5000811165C180910D0C83FD61C183E5B3DAFD
:102A60008C87811105C082E5AEDA89838823C1F0A5
:102A70002EDA0E94837D709327036093260380E003
:102A80000E94F54B24DA20E030E04AEA52E40E944A
:102A9000157818160CF43EC10E94B25621E0298325
:102AA0000E948D284981442309F439C181E0809333
:102AB00001021A821B821C821D82188619861A86C0
:102AC0001B8619821D865CE35E878CE18F8796E406
:102AD000988B312C212CA0E8A98BBFEBBA8B812CD1
:102AE000912C54016091260370912703072E000C4E
:102AF000880B990B0E941B787B018C019B01AC0118
:102B0000632D722D89899A890E941578882329F16D
:102B10002091E6063091E7064091E8065091E906DB
:102B20008C85B70181110CC0C8010E941578881FDF
:102B30008827881F89833E2C2F2C098B1A8B0DC068
:102B4000C8010E94157887FF03C080910102E7C089
:102B50003E2C2F2C098B1A8B19820E94B45A6B01C0
:102B60007C01DC01CB01288539854A855B85821B88
:102B7000930BA40BB50BB7FD37C0D701C601885125
:102B80009C4FAF4FBF4F88879987AA87BB870E940A
:102B9000EF4AE1EDF6E084913F019FEF691A790A6F
:102BA000882319F09BDAF301F6CF81149104A10474
:102BB000B104B1F0D501C401805F984DAF4FBF4F54
:102BC000BC01CD016C197D098E099F0928EE33E007
:102BD00040E050E00E94037CCA01B901DEDD02C082
:102BE0008FE37CDA8AE07ADAD9D70E94B45A60930C
:102BF0002D0370932E0380932F0390933003A091A5
:102C0000E606AE83B091E706BF830091E806109117
:102C1000E9069D01A801632D722D89899A890E9478
:102C20003E7C2B013C0120E030E0A9010E94657E42
:102C300087FF04C077FA709477F870948114910438
:102C4000A104B10459F420E030E040E85FE3C3019F
:102C5000B2010E94157887FF0DC00AC020E030E065
:102C600040E450E4C301B2010E94657E181614F4DA
:102C70004601570129812223A9F18A819B81AC81D8
:102C8000BD81892B8A2B8B2B61F0D701C6012A814C
:102C90003B814C815D81821B930BA40BB50BB7FD6F
:102CA00021C02E813F81A8016D857E858F85988901
:102CB0000E943E7C20E030E040EC5FE30E9415780B
:102CC00087FD43CFD701C601805A9541AF4FBF4F13
:102CD0008A839B83AC83BD839E819D87AF81AE87B2
:102CE0000F87188B80910102882309F42ECF81145D
:102CF0009104A104B10409F4F5CEB0E1CB1AB7E216
:102D0000DB0AE108F108C818D908EA08FB08F7FE51
:102D10001CCFE8CE0E94915631E03983C1CE629635
:102D20000FB6F894DEBF0FBECDBFDF91CF911F91DC
:102D30000F91FF90EF90DF90CF90BF90AF909F905A
:102D40008F907F906F905F904F903F902F9008955D
:102D50008F929F92AF92BF92CF92DF92EF92FF92AB
:102D6000CF936B017C01B42E20E030E0A9010E94DA
:102D7000157887FF06C08DE2B1D9F7FAF094F7F81D
:102D8000F094C0E060E070E080E09FE3CB1541F09C
:102D90002DEC3CEC4CEC5DE30E947A78CF5FF6CFF3
:102DA0009B01AC01C701B6010E943F7C6B017C0115
:102DB0000E94887D4B015C014AE048DCCC2379F11C
:102DC000C501B4010E9419789B01AC01C701B6018D
:102DD0000E943E7C6B017C018EE280D920E030E0D5
:102DE00040E251E4C701B6010E947A784B015C01D0
:102DF0000E94837D6B01770FEE08FF08C701B601C3
:102E0000CCDCC701B6010E941B789B01AC01C50157
:102E1000B4010E943E7C6B017C01C150F9F6CF9158
:102E2000FF90EF90DF90CF90BF90AF909F908F90EA
:102E30000895CF93DF930E94C30D8BE54FD9CFE068
:102E4000D6E0688179818A819B8142E081DF4C8173
:102E50005D816E817F818FEB96E00E943C284885E2
:102E600059856A857B858CEB96E00E943C288DE530
:102E700035D98AE0DF91CF9131C91F920F920FB6F9
:102E80000F9211240BB60F920F931F932F933F9322
:102E90004F935F936F937F938F939F93AF93BF9362
:102EA000CF93DF93EF93FF9300910E06D0910D0621
:102EB00011E01D0F1F77C091C60090912205492F88
:102EC000092E000C550B660B770B4C30510508F0A2
:102ED00047C0FA018827EE58FF4F8F4F0C94337F7D
:102EE000CD3441F0CE34B9F481E005C0CA3330F0BE
:102EF000CD3471F582E0809322057BC0C03308F0A9
:102F000078C0C03209F475C0CD3211F572C0C1333A
:102F100029F0C43329F0C032D9F46BC083E0EBCF81
:102F200088E0E9CFC03321F0C13391F486E0E3CFEC
:102F300084E0E1CFC83361F485E0DDCFC23341F4F2
:102F400087E0D9CFC13321F489E0D5CFC03311F068
:102F50008BE0D1CF8AE0CFCFCA3009F04AC047C05A
:102F6000CA3009F046C0973049F09A3059F0953090
:102F7000F1F5109201021092200339C081E0809394
:102F8000290C35C080916F00982F927081FF05C089
:102F900080916F008D7F80936F008091FB0B8093F9
:102FA000FC0B80936D068093C60684E68093EA0648
:102FB00028EE33E030931F0C20931E0C992329F048
:102FC00080916F00826080936F0081E08093780C25
:102FD0000E9476290E94C30D8CE0EFE0F6E0A1EAA2
:102FE000BCE001900D928A95E1F70E947E0E10924E
:102FF0002205011731F0ED2FF0E0E357FA4FC083BF
:10300000D12FD0930D06FF91EF91DF91CF91BF911A
:10301000AF919F918F917F916F915F914F913F9170
:103020002F911F910F910F900BBE0F900FBE0F901D
:103030001F9018958F929F92AF92BF92CF92DF927E
:10304000EF92FF920F93CF93DF931F92CDB7DEB72E
:103050007C015B016A0149018091250C8823E9F01C
:10306000F70180819181C80ED91ED182C08222C011
:1030700001111DC0BE016F5F7F4FC4010E94513816
:10308000F70180819181019691838083FFEFAF1AD0
:10309000BF0A81E0C81AD10869F0F70180819181E7
:1030A0000E94DE7B8983909188039111E1CFF50125
:1030B0008083E0CF0F90DF91CF910F91FF90EF9041
:1030C000DF90CF90BF90AF909F908F9008957F92A8
:1030D0008F929F92AF92BF92CF92DF92EF92FF9228
:1030E0000F931F93CF93DF931F92CDB7DEB7E0917D
:1030F000250CEE2341F0FC0120813181420F531F4A
:103100005183408349C069017C015B018B01040F3D
:10311000151FA016B10609F43FC0F7018080918009
:10312000F50171905F017982C4010E94DE7B7816FF
:1031300031F1672DC4010E94E67BC4010E94DE7B51
:1031400099818917E1F0EEE7F1E184918F010F5F3A
:103150001F4F882321F00E946E10F801F6CFE6EF92
:10316000F8E084918F010F5F1F4F882321F00E94A8
:103170006E10F801F6CF81E08093250C0DC0BE01E2
:103180006F5F7F4FC6010E945138F70180819181A6
:10319000019691838083BDCF0F90DF91CF911F91D6
:1031A0000F91FF90EF90DF90CF90BF90AF909F90E6
:1031B0008F907F900895CF93DF93CDB7DEB72C9794
:1031C0000FB6F894DEBF0FBECDBF8091A10C9091D9
:1031D000A20CA091A30CB091A40C89839A83AB8319
:1031E000BC838091A50C9091A60CA091A70CB091E6
:1031F000A80C8D839E83AF83B8878091A90C909192
:10320000AA0CA091AB0CB091AC0C89879A87AB87C4
:10321000BC870E94BD280E943C4380E00E943E0E75
:1032200081E00E943E0E82E00E943E0E0E945E2AD5
:103230004CE050E061EA7CE0CE0101960E943B7FC9
:10324000892B49F02C960FB6F894DEBF0FBECDBF88
:10325000DF91CF911DCB2C960FB6F894DEBF0FBE39
:10326000CDBFDF91CF910895CF92DF92EF92FF9281
:10327000CF93DF93EC01C0906B03D0906C03E09090
:103280006D03F0906E03A7019601688179818A81B0
:103290009B810E94157887FF04C0C882D982EA8288
:1032A000FB82C0906F03D0907003E0907103F090A8
:1032B0007203A70196016C817D818E819F810E949E
:1032C000157887FF04C0CC82DD82EE82FF82C09039
:1032D0000602D0900702E0900802F0900902A701D0
:1032E0009601688179818A819B810E94657E18168A
:1032F00024F4C882D982EA82FB82C0900A02D0906C
:103300000B02E0900C02F0900D02A70196016C8177
:103310007D818E819F810E94657E181624F4CC8267
:10332000DD82EE82FF82C0907303D0907403E09040
:103330007503F0907603A7019601688579858A85E3
:103340009B850E94157887FF04C0C886D986EA86C7
:10335000FB86C0900E02D0900F02E0901002F09019
:103360001102A7019601688579858A859B850E944F
:10337000657E181624F4C886D986EA86FB86DF9116
:10338000CF91FF90EF90DF90CF900895CF93DF9390
:10339000E0E6F5E08491EF012196882321F00E9478
:1033A0006E10FE01F7CF8AE0DF91CF910C946E1082
:1033B0004F925F926F927F928F929F92AF92BF9245
:1033C000DF92EF92FF920F931F93CF93DF93D82E4C
:1033D000C82FD0E0FE01E459FB4F64917E01EE0C52
:1033E000FF1CEE0CFF1CF701E651F74F459055907E
:1033F00065907490062E000C770B880B990B0E9439
:103400001B784B015C0120E030E040EC5FE3C3013E
:10341000B2010E947A78A50194010E947A78AB01EA
:10342000BC0100E010E098018D2D0E94880EF7018C
:10343000E252F74F2591359145915491C501B40160
:103440000E947A784B015C0120E030E0A9010E94E3
:103450001578882309F447C000E010E09801B50111
:10346000A40170588D2D0E94880EFE01E552F74F81
:103470006491611117C0EEE7F1E18491EF012196AB
:10348000882321F00E946E10FE01F7CFE9EBF8E0EF
:103490008491EF012196882321F00E946E10FE0195
:1034A000F7CF6AE0F701E95FFD4F459055906590D1
:1034B000749070E080E090E00E941B789B01AC016A
:1034C000C301B2010E941B7D2B013C01A5019401A7
:1034D000C501B4010E943F7CAB01BC019301820194
:1034E0008D2D0E94880E81E090E00D2C01C0880F88
:1034F0000A94EAF790913703982B909337039091B1
:103500006C06892B80936C06F701EC5EFC4F1082F1
:103510001182128213828D2D0E943E0EF701EE5B06
:10352000FB4F85919591A591B491E701CF55D34F6C
:1035300088839983AA83BB830E947E0EF701E0579C
:10354000F34F88819981AA81BB8180839183A28373
:10355000B383DF91CF911F910F91FF90EF90DF9098
:10356000BF90AF909F908F907F906F905F904F90A3
:103570000895EF92FF920F931F93CF93DF931F92C3
:103580001F92CDB7DEB782E08093C0001092C500D5
:1035900087E08093C4008091C10080618093C10066
:1035A0008091C10088608093C1008091C1008068D3
:1035B0008093C100E2EBF8E084918F010F5F1F4F11
:1035C000882321F00E946E10F801F6CFEEE7F1E1BA
:1035D00084918F010F5F1F4F882321F00E946E108E
:1035E000F801F6CF14B710FF0DC0E9EAF8E08491B6
:1035F0007F019FEFE91AF90A882321F00E946E10DB
:10360000F701F5CF11FF0DC0E8E9F8E084917F01E3
:103610009FEFE91AF90A882321F00E946E10F70142
:10362000F5CF12FF0DC0E6E8F8E084917F019FEF2F
:10363000E91AF90A882321F00E946E10F701F5CFEC
:1036400013FF0DC0E5E7F8E084917F019FEFE91AD1
:10365000F90A882321F00E946E10F701F5CF15FFBB
:103660000CC0E4E6F8E084918F010F5F1F4F8823C0
:1036700021F00E946E10F801F6CF14BEEDE5F8E0DF
:1036800084918F010F5F1F4F882321F00E946E10DD
:10369000F801F6CF80E20E946E10E6E5F8E0849132
:1036A0008F010F5F1F4F882321F00E946E10F801D9
:1036B000F6CF8AE00E946E10EEE7F1E184918F016F
:1036C0000F5F1F4F882321F00E946E10F801F6CF84
:1036D000E6E4F8E084918F010F5F1F4F882321F00B
:1036E0000E946E10F801F6CFEBE3F8E084918F01B1
:1036F0000F5F1F4F882321F00E946E10F801F6CF54
:10370000E1E2F8E084918F010F5F1F4F882321F0E1
:103710000E946E10F801F6CFEEE7F1E184918F017F
:103720000F5F1F4F882321F00E946E10F801F6CF23
:10373000EAE0F8E084918F010F5F1F4F882321F0AA
:103740000E946E10F801F6CFEEE7F1E184918F014F
:103750000F5F1F4F882321F00E946E10F801F6CFF3
:103760002091C00C3091C10CCE010196211531057C
:1037700019F4865C9C4002C0821B930B9A83898358
:1037800069817A818BEF97E00E94592860E175E0AA
:1037900084EE97E00E9459288AE00E946E1081E032
:1037A0008093890380938A0380938B0380938C0397
:1037B0000E941D4A8CE0E3E5F3E0A1EABCE0019041
:1037C0000D928A95E1F70E947E0E8091010180643E
:1037D00080930101809101018061809301018091BA
:1037E00001018860809301016D9A809101018062DE
:1037F00080930101809101018860809301016C9A9E
:1038000087ED80937A0010927E0010927D00809167
:103810007E00816080937E0080917E008460809332
:103820007E0080E888BD80916E00846080936E0089
:103830006AEF70E080E090E00E947C5A85E090E0C2
:103840009093280C8093270C60E080913402909133
:1038500035020E945B4A20E030E040EA50E40E94DA
:10386000157887FF0AC08091340290913502409705
:103870009093350280933402E7CF88E191E09093F2
:1038800031028093300260E080912D0C90912E0CDB
:103890000E945B4A20E030E04CE853E40E94657EE1
:1038A000181654F480912D0C90912E0C4096909304
:1038B0002E0C80932D0CE7CF809132029091330231
:1038C0000E94654C20E030E040EA50E40E94157808
:1038D00087FF0AC080913202909133024097909303
:1038E000330280933202E8CF80912B0C90912C0C04
:1038F0000E94654C20E030E046E153E40E94657E82
:10390000181654F480912B0C90912C0C40969093A7
:103910002C0C80932B0CE8CF0E94765626982E9A7A
:1039200025982D9A24982C9A10923D0310923C03CE
:103930001FB7F89480912406811127C0EFE0FAE1C7
:103940008491E5E6FAE19491E82FF0E0EE0FFF1F95
:10395000E457F64EA591B491EC91E92321F461E08E
:1039600085E30E944B5961E085E30E9479598CB54B
:1039700080618CBD8CB580648CBD61E084E30E9465
:10398000795961E083E30E947959809124068F5F21
:10399000809324061FBF579A94E4E92E92E0F92EF3
:1039A00010E0F70161917F0170E0812F0E942F5894
:1039B0001F5F1530B1F7999A989A80910701806836
:1039C000809307019A9A8091070180648093070190
:1039D00080910701806280930701809107018860D0
:1039E0008093070180910701806180930701809196
:1039F00007018260809307018091070184608093B2
:103A0000070189E4E82E82E0F82E10E0F7016191C9
:103A10007F01812F0E94ED571F5F1530B9F780910C
:103A20000A01826080930A0180910A01816080937B
:103A30000A0180910A01846080930A0180910A0141
:103A4000806480930A0180910A01806880930A0152
:103A50000F9A179A0E9A169A0D9A159A0C9A149A0A
:103A60000B9A139A389A4098179A809137038E7F51
:103A700080933703399A4198169A809137038D7F46
:103A8000809337033A9A4298159A809137038B7F37
:103A9000809337033B9A4398149A809180008C7FDF
:103AA0008093800080918100877E88608093810070
:103AB000809180008F738093800080918100887F47
:103AC00082608093810080E090E4909389008093ED
:103AD0008800109285001092840080916F008260AF
:103AE00080936F0081E080933D037894AAD398E29D
:103AF00088E10FB6F894A895809360000FBE90936C
:103B000060000F900F90DF91CF911F910F91FF9068
:103B1000EF900895179A809137038E7F8093370333
:103B2000169A809137038D7F80933703159A809181
:103B300037038B7F80933703149A0895EFEEFAE1F1
:103B40008491EF012196882321F00E946E10FE01DE
:103B5000F7CFE4ECF7E08491EF012196882321F080
:103B60000E946E10FE01F7CF0E94414CD3DF2FEF71
:103B70008BE49DE1215080409040E1F700C00000BF
:103B8000F8942FEF84E39CE0215080409040E1F7CF
:103B900000C000000E94414CA895FECF2F923F929A
:103BA0004F925F926F927F928F929F92AF92BF924D
:103BB000CF92DF92EF92FF920F931F93CF93DF93F9
:103BC00000D01F92CDB7DEB70E94B45A6B017C01C2
:103BD00080910002882309F47BC08091920388239E
:103BE00009F476C040911C0650911D0660911E0696
:103BF00070911F0697018601041B150B260B370BCE
:103C000037FD79C0833051F134F481300CF460C059
:103C1000EEE7F1E106C0843009F05AC0EEE7F1E1C9
:103C20003BC084918F010F5F1F4F1B830A83882342
:103C300029F00E946E10EA81FB81F3CFEFE6F7E0F6
:103C400084918F010F5F1F4F1B830A83882309F420
:103C50003FC00E946E10EA81FB81F2CFEEE7F1E1F6
:103C600084918F010F5F1F4F1B830A83882329F0E4
:103C70000E946E10EA81FB81F3CFE8E5F7E08491C2
:103C80008F010F5F1F4F1B830A83882309F10E9456
:103C90006E10EA81FB81F3CF84918F010F5F1F4F7C
:103CA0001B830A83882329F00E946E10EA81FB811E
:103CB000F3CFE0E4F7E084918F010F5F1F4F1B8388
:103CC0000A83882329F00E946E10EA81FB81F3CFDA
:103CD0002091000230E0A8EEB3E00E942F7CC60ED7
:103CE000D71EE81EF91EC0921C06D0921D06E09257
:103CF0001E06F0921F0680911505843030F40E9454
:103D0000B312811102C00E949F110E94B45AC09048
:103D10003803D0903903E0903A03F0903B03C1148C
:103D2000D104E104F10489F100912D0310912E03D7
:103D300020912F03309130030C0D1D1D2E1D3F1DB2
:103D40006B017C01C01AD10AE20AF30AF7FC1DC01C
:103D5000EFEEFAE184918F010F5F1F4F1B830A83FF
:103D6000882329F00E946E10EA81FB81F3CF6091D5
:103D70008E0C70918F0C8AE897E00E9472288AE07E
:103D80000E946E1081E897E0D9DEC0900202D090C8
:103D90000302E0900402F0900502C114D104E10492
:103DA000F104B1F13091FC0B2091FB0B321749F07B
:103DB00060932D0370932E0380932F039093300311
:103DC00027C000912D0310912E0320912F033091D5
:103DD00030030C0D1D1D2E1D3F1DDC01CB01801B72
:103DE000910BA20BB30BB7FD13C0179A8091370349
:103DF0008E7F80933703169A809137038D7F80934F
:103E00003703159A809137038B7F80933703149A79
:103E10009091FC0B8091FB0B981309C06091DF0619
:103E20001091E1061A83C090E306C98224C0E09194
:103E3000FB0B81E58E9FF0011124EE5CF84F608151
:103E4000E091FB0B8E9FF0011124EC5CF84FD080C9
:103E5000DA82E091FB0B8E9FF0011124EA5CF84FAF
:103E6000E080E9828091FB0B9091FC0B981719F090
:103E70008F5F8F70F9CF70E088E00E94B559FA80AB
:103E80006F2D70E086E00E94B5590981602F70E0C7
:103E900082E00E94B55980912A0C882309F4FBC066
:103EA0000091190210911A02C0901B02CC82D0908E
:103EB0001C02DA8260912603709127036E5F7F4FA8
:103EC000072E000C880B990B0E941B789801A60105
:103ED0000E94157887FDDFC0F090FB0B212C312C60
:103EE000E12C19828091FC0B8F1509F460C08F2D95
:103EF00090E021E5289FF001299FF00D1124E55164
:103F0000F94F458956896789708D452B462B472B7C
:103F100081F4418D528D638D748D452B462B472B3B
:103F200041F4458D568D678D70A1452B462B472B4F
:103F3000C9F141E5489F9001499F300D1124C90105
:103F40008551994F6C01FC0161817281838194815B
:103F50000E94AA7E4B015C01F60161A172A183A1BE
:103F600094A10E9419782B013C01F60165A176A16C
:103F700087A190A50E9419789B01AC01C301B201F1
:103F80000E941B7DA50194010E947A785B016C015F
:103F900091014E2D59810E94657E18161CF4150161
:103FA000EC2CD98281E08F0D8F70F82E9BCF209161
:103FB0001D0230911E0240911F0250912002B1015A
:103FC0008E2D99810E947A7898014C815A810E94A5
:103FD0003F7C6B017C019B01AC01B8018C819A8113
:103FE0000E94657E1816B4F0009115021091160219
:103FF000F0911702FC83209118022A8398014F2F19
:104000005A81B601C7010E94657E18161CF0860110
:10401000EC82FA82C0902006D0902106E090220621
:10402000F090230698014C815A81C701B6010E9485
:10403000657E1816D4F420E037ED43EA5CE3B8015E
:104040008C819A810E947A784B015C0128E431EEE0
:104050004AE75FE3C701B6010E947A78A50194019F
:104060000E943F7C8B018C839A83C801AC81BA810A
:104070008093200690932106A0932206B0932306F6
:10408000B801CD010E94837D7093270360932603BE
:1040900080E00E94F54B0E949F4F80912C03882363
:1040A00009F444C00E94B45A0091280310912903D6
:1040B00020912A0330912B03DC01CB01801B910B53
:1040C000A20BB30BB7FD32C00E94B45A6B017C0146
:1040D00020912C0330E0A8EEB3E00E942F7CC60EA6
:1040E000D71EE81EF91EC0922803D0922903E09241
:1040F0002A03F0922B030E94EF4A8AE00F900F9060
:104100000F900F90DF91CF911F910F91FF90EF9043
:10411000DF90CF90BF90AF909F908F907F906F90E7
:104120005F904F903F902F900C946E100F900F90D7
:104130000F900F90DF91CF911F910F91FF90EF9013
:10414000DF90CF90BF90AF909F908F907F906F90B7
:104150005F904F903F902F9008958091FC0B90912D
:10416000FB0B891B8F7019F480E090E0089590910B
:10417000EA06992351F0833030F48FEF890F19F05C
:104180008093EA06F1CF1092EA06E091FB0B81E5FD
:10419000E89FF0011124E551F94F808180FDE4CFC3
:1041A0008091FB0B8F5F8F708093C6069091FB0B05
:1041B00080916D06981304C08091C60680936D06A9
:1041C000CF0108950F930FB70F9300916E000F93D7
:1041D0000B7F00936E0000916F000D7F00936F00C6
:1041E0000F930BB70F930CB70F921F922F933F9320
:1041F0004F935F936F937F938F939F93AF93BF93EF
:10420000EF93FF93112471D0FF91EF91BF91AF9184
:104210009F918F917F916F915F914F913F912F91DE
:104220001F900F900CBF0F910BBF0F910260F8947D
:1042300000936F000F9100936E000F910FBF0F91CD
:1042400018958091250680FF08C080910B0180950C
:104250008270809309018FEF06C080910B018270FC
:104260008093090181E0809321028091250681FFDE
:1042700007C080910B018170809309018FEF07C007
:1042800080910B01809581708093090181E080937A
:1042900022028091250682FF08C080910B01809543
:1042A0008470809309018FEF06C080910B018470A8
:1042B0008093090181E0809323028091250683FF8A
:1042C00007C080910B018074809309018FEF07C0B4
:1042D00080910B01809580748093090181E0809327
:1042E000240200000000000008952F923F924F9298
:1042F0005F926F927F928F929F92AF92BF92CF9276
:10430000DF92EF92FF921F93CF93DF93F8948FEF9A
:104310009FEF90938900809388001AE0C0E0D0E07E
:10432000BCE22B2EB1E13B2E7894809168069091EF
:104330006906A0916A06B0916B06892B8A2B8B2B9C
:1043400009F0CEC18091780C8823D1F01092780CBE
:104350008091760C9091770C892B91F01092260623
:104360001092770C1092760C9091FC0B8091FB0BC5
:10437000981731F08091FB0B8F5F8F708093FB0B50
:104380008091760C9091770C892B09F4A9C18090CB
:10439000640690906506A0906606B090670640910E
:1043A0006006509161066091620670916306C0904C
:1043B0005306D12CE12CF12CDB01CA018819990993
:1043C000AA09BB09C816D906EA06FB0610F4D701EC
:1043D000C601282F880D991DAA1DBB1D8093640658
:1043E00090936506A0936606B0936706809184005B
:1043F000909185004E96C0903B06D0903C06E09090
:104400003D06F0903E0640912B0650912C0660919F
:104410002D0670912E064C0D5D1D6E1D7F1D409367
:104420003B0650933C0660933D0670933E0677FD35
:104430001CC0409AC0900403D0900503E09006038E
:10444000F090070340912102042E000C550B660BDF
:10445000770B4C0D5D1D6E1D7F1D40930403509323
:1044600005036093060370930703C0903F06D09046
:104470004006E0904106F090420640912F06509190
:10448000300660913106709132064C0D5D1D6E1D37
:104490007F1D40933F065093400660934106709302
:1044A000420677FD1CC0419AC0900803D0900903D2
:1044B000E0900A03F0900B0340912202042E000CBE
:1044C000550B660B770B4C0D5D1D6E1D7F1D4093CC
:1044D00008035093090360930A0370930B03C09081
:1044E0004306D0904406E0904506F0904606409181
:1044F00033065091340660913506709136064C0DA6
:104500005D1D6E1D7F1D40934306509344066093CE
:1045100045067093460677FD1CC0429AC0900C0376
:10452000D0900D03E0900E03F0900F034091230212
:10453000042E000C550B660B770B4C0D5D1D6E1D8C
:104540007F1D40930C0350930D0360930E037093F3
:104550000F03C0904706D0904806E0904906F090BF
:104560004A0640913706509138066091390670919D
:104570003A064C0D5D1D6E1D7F1D409347065093FE
:1045800048066093490670934A0677FD1CC0439A1B
:10459000C0901003D0901103E0901203F090130329
:1045A00040912402042E000C550B660B770B4C0D2A
:1045B0005D1D6E1D7F1D409310035093110360938A
:1045C00012037093130340918400509185004817A3
:1045D0005907C8F340913B0650913C0660913D0657
:1045E00070913E0677FD15C0C0902706D090280632
:1045F000E0902906F0902A064C195D096E097F09A2
:1046000040933B0650933C0660933D0670933E06F4
:10461000409840913F06509140066091410670914C
:10462000420677FD15C0C0902706D0902806E0907E
:104630002906F0902A064C195D096E097F094093FE
:104640003F0650934006609341067093420641989E
:10465000409143065091440660914506709146068C
:1046600077FD15C0C0902706D0902806E090290657
:10467000F0902A064C195D096E097F0940934306A4
:1046800050934406609345067093460642984091C5
:104690004706509148066091490670914A0677FD99
:1046A00015C0C0902706D0902806E0902906F0900B
:1046B0002A064C195D096E097F09409347065093FD
:1046C00048066093490670934A064398215041F08A
:1046D000409184005091850048175907C8F38ACE4D
:1046E0008091680690916906A0916A06B0916B0668
:1046F000892B8A2B8B2B09F01FC3E091760CF0914C
:10470000770C309709F494C4809164069091650603
:10471000A0916606B09167064091600650916106CF
:10472000609162067091630684179507A607B70724
:10473000D0F0109226061092770C1092760C909181
:10474000FC0B8091FB0B981709F472C48091FB0B52
:104750008F5F8F708093FB0BA0EDCA2EA7E0DA2E3F
:10476000E12CF12C4EC140915C0650915D066091A8
:104770005E0670915F06481759076A077B0708F4C1
:1047800067C0409158065091590660915A06709141
:104790005B0682A993A9A4A9B5A9FF24499FE12C8E
:1047A0005A9F90016A9F300D699F200D311D4A9FCD
:1047B000E00C211D3F1D599FE00C211D3F1D689FEE
:1047C000E00C211D3F1D589FE10C2F1D3F1DE6945D
:1047D0002F1D3F1DB49F200D311DB59F300D11249D
:1047E00083AD94ADA5ADB6AD820F931FA11DB11DD4
:1047F0008093540690935506A0935606B09357069F
:10480000C7A8D0ACE1ACF2ACC816D906EA06FB06E4
:1048100040F4C0925406D0925506E0925606F092AB
:1048200057068090540690905506A0905606B0907A
:10483000570680E191E121E0FC01C590D590E5901B
:10484000F490C814D904EA04FB0408F4BBC2C5C23E
:1048500040914F065091500660915106709152065A
:10486000481759076A077B0708F063C040914B0659
:1048700050914C0660914D0670914E0682A993A905
:10488000A4A9B5A9FF24499FE12C5A9F90016A9FD2
:10489000300D699F200D311D4A9FE00C211D3F1DE9
:1048A000599FE00C211D3F1D689FE00C211D3F1DFD
:1048B000589FE10C2F1D3F1DE6942F1D3F1DB49FF7
:1048C000200D311DB59F300D1124C901A0E0B0E0CD
:1048D0008090540690905506A0905606B0905706CA
:1048E000FF9688159905AA05BB0580F4C080D18084
:1048F000E280F380881A990AAA0ABB0A8C149D04E4
:10490000AE04BF0438F44601570104C08080918092
:10491000A280B38080E191E121E0FC01C590D590B7
:10492000E590F490C814D904EA04FB0408F4BDC26D
:10493000C7C28091260290912702A0912802B091CF
:104940002902B7FF56C087A990ADA1ADB2AD20E155
:1049500031E141E0F901C590D590E590F490C81699
:10496000D906EA06FB0658F4B695A795979587955C
:10497000440F2C5F3F4FF1E12C323F0759F7409332
:10498000530680329105A105B10508F424C3809730
:10499000A109B109811528E09207A105B10508F424
:1049A000F7C244E0949F90011124205F324FF90137
:1049B000329645915491EE27859FB001849F610DF9
:1049C0007E1F06946E1F7E1F1124CB01A0E0B0E075
:1049D000F9014591549160E070E0481B590B6A0B56
:1049E0007B0B40932602509327026093280270931A
:1049F0002902C0902602D0902702E0902802F09071
:104A000029028091760C9091770C892B09F08CC14A
:104A1000A4DB9093770C8093760C892B09F484C1E6
:104A2000E091760CF091770C808183FF3EC0858900
:104A30009689A789B08D8093040390930503A09372
:104A40000603B0930703818D928DA38DB48D80935F
:104A5000080390930903A0930A03B0930B03858D79
:104A6000968DA78DB0A180930C0390930D03A09316
:104A70000E03B0930F0381A192A1A3A1B4A18093CF
:104A8000100390931103A0931203B093130390911A
:104A9000FC0B8091FB0B981709F4BACF8091FB0BAC
:104AA0008F5F8F708093FB0BB3CF85889688A78824
:104AB000B08C81E081149104A104B10409F480E078
:104AC000C18CD28CE38CF48CC114D104E104F104C8
:104AD00009F08260458D568D678D70A14115510595
:104AE0006105710509F084608093260610924B06DB
:104AF00010924C0610924D0610924E0610925806D7
:104B00001092590610925A0610925B0685A196A142
:104B1000A7A1B0A58093600690936106A09362065A
:104B2000B0936306442455243201481A590A6A0A8C
:104B30007B0A40924706509248066092490670925E
:104B40004A0640924306509244066092450670928F
:104B5000460640923F06509240066092410670928F
:104B6000420640923B0650923C0660923D0670928F
:104B70003E06880C991CAA1CBB1C80922B069092A6
:104B80002C06A0922D06B0922E06CC0CDD1CEE1C3D
:104B9000FF1CC0922F06D0923006E0923106F092B0
:104BA0003206440F551F661F771F409333065093FC
:104BB0003406609335067093360641A152A163A175
:104BC00074A1440F551F661F771F409337065093FB
:104BD00038066093390670933A06880F991FAA1F0A
:104BE000BB1F8093270690932806A0932906B093B5
:104BF0002A061092640610926506109266061092BC
:104C0000670682A593A5A4A5B5A580935C0690939D
:104C10005D06A0935E06B0935F0686A597A5A0A942
:104C2000B1A980934F0690935006A0935106B0937C
:104C3000520641A556A98091250658130AC08091B5
:104C4000250290E0242F042E000C330B281739077F
:104C500029F05093250640932502F3DA80913D0315
:104C600081110E9476458FEF9FEFDC018093260231
:104C700090932702A0932802B0932902E091760C2A
:104C8000F091770C83AD94ADA5ADB6AD809354068D
:104C900090935506A0935606B093570620E131E154
:104CA00041E0F901C590D590E590F490C816D90679
:104CB000EA06FB0650F4B695A79597958795440F9D
:104CC0002C5F3F4F2216330661F740935306803224
:104CD0009105A105B10508F4A6C18097A109B10904
:104CE0008115F8E09F07A105B10508F479C144E0FA
:104CF000949F90011124205F324FF9013296459123
:104D00005491EE27859FB001849F610D7E1F06940C
:104D10006E1F7E1F1124F901C590D490E12CF12C57
:104D2000C61AD70AE108F108C0926806D09269064F
:104D3000E0926A06F0926B0680916806909169068F
:104D4000A0916A06B0916B06AC01BD010097F1E03D
:104D5000AF07B10520F04FEF5FEF60E070E0841B1C
:104D6000950BA60BB70B8093680690936906A093EA
:104D70006A06B0936B06F894809184009091850048
:104D80004096115039F0C40FD51FC817D90708F441
:104D9000CBCA01C0EC01D0938900C09388007894FD
:104DA000DF91CF911F91FF90EF90DF90CF90BF9058
:104DB000AF909F908F907F906F905F904F903F90BB
:104DC0002F900895B694A79497948794220F0496F1
:104DD00031E18C32930709F02FCD2093530680E206
:104DE00088169104A104B10408F459C020E2821A83
:104DF0009108A108B108811438E09306A104B10418
:104E0000F8F0A4E09A9EC0011124805F924FFC014B
:104E1000329625913491F82DEE27F39FD001F29F21
:104E2000A10DBE1F0694AE1FBE1F1124FC01C5902C
:104E3000D490E12CF12CCA1ADB0AE108F10822C057
:104E4000D501C401B695A79597958795FC01EC7F90
:104E5000CF01805F964FFC01C590D490FC01329643
:104E600025913491E82DE770E29FC001E39F900DFA
:104E70001124F3E096958795FA95E1F7C81AD90AB7
:104E8000E12CF12C4C0D5D1D6E1D7F1D40935806CD
:104E90005093590660935A0670935B06B2CDA0E218
:104EA0008A2E912CA12CB12CA1CFB694A7949794C3
:104EB0008794220F0496A1E18C329A0709F02DCD38
:104EC0002093530690E289169104A104B10408F4DA
:104ED00059C020E2821A9108A108B108811438E073
:104EE0009306A104B104F8F0A4E09A9EC001112435
:104EF000805F924FFC01329625913491F82DEE2778
:104F0000F39FD001F29FA10DBE1F0694AE1FBE1FDE
:104F10001124FC01C590D490E12CF12CCA1ADB0AB3
:104F2000E108F10822C0D501C401B695A79597956F
:104F30008795FC01EC7FCF01805F964FFC01C59007
:104F4000D490FC01329625913491E82DE770E29FD0
:104F5000C001E39F900D112433E0969587953A9513
:104F6000E1F7C81AD90AE12CF12C4C0D5D1D6E1D1C
:104F70007F1D40934B0650934C0660934D067093F3
:104F80004E063FCDF0E28F2E912CA12CB12CA1CF5B
:104F9000AC01BD017695679557954795FA01EC7F71
:104FA0009F01205F364FF90145915491F9013296E6
:104FB000659174918770869F9001879F300D1124B1
:104FC000C901F3E096958795FA95E1F7481B590BCF
:104FD00060E070E006CD80E290E0A0E0B0E0D7CCE9
:104FE000AC01BD017695679557954795FA01EC7F21
:104FF0009F01205F364FF901C590D490F901329698
:10500000459154918770849F9001859F300D1124A4
:10501000C90123E0969587952A95E1F7C81AD90A20
:10502000E12CF12C81CE80E290E0A0E0B0E055CE02
:1050300080EDC82E87E0D82EE12CF12CE9CCCF9260
:10504000DF92EF92FF92CF93DF936A017B01FC0125
:105050008491EF012196882321F00E946E10FE01B9
:10506000F7CF4AE0C701B601DF91CF91FF90EF90F3
:10507000DF90CF900C942613CF92DF92EF92FF92A5
:10508000CF93DF936A017B01FC018491EF012196AC
:10509000882321F00E946E10FE01F7CF42E0C70185
:1050A000B601DF91CF91FF90EF90DF90CF900C94FD
:1050B000A8160F931F93CF93DF938B01FC0184916C
:1050C000EF012196882321F00E946E10FE01F7CF98
:1050D000B801110F880B990BDF91CF911F910F91A0
:1050E0000C94CD130F931F93CF93DF938B01FC018F
:1050F0008491EF012196882321F00E946E10FE0119
:10510000F7CFE8018991882319F00E946E10FACF39
:10511000DF91CF911F910F91089586E40E949A0F1D
:1051200080932A0C882351F00E94670F60931D0220
:1051300070931E0280931F029093200283E50E94C9
:105140009A0F882351F00E94670F609319027093A1
:105150001A0280931B0290931C0282E40E949A0F11
:10516000882351F00E94670F609315027093160216
:10517000809317029093180208954F925F926F9256
:105180007F928F929F92AF92BF92EF92FF920F9376
:105190001F93CF93DF93C3E4D3E08EE0E82E8CE03F
:1051A000F82E02E916E0412C512C3201439469910A
:1051B000799189919991F70181909190A190B19005
:1051C0007F010E941978A50194010E947A780E94BB
:1051D000887DF80161937193819391938F014616B5
:1051E00057066806790610F42B013C01F3E0C3353D
:1051F000DF07E9F66FEF7FEFCB01A30192010E9479
:10520000037C2093A2063093A3064093A4065093F8
:10521000A506DF91CF911F910F91FF90EF90BF9066
:10522000AF909F908F907F906F905F904F90089578
:105230008091FC0B9091FB0B891B8F708F3019F4C0
:105240000E94CE1DF5CF8091FC0B8F5F8F70E09197
:10525000FC0B91E59E9FF0011124E551F94FDF0110
:105260001D929A95E9F798E090834091FD0B50913B
:10527000FE0B6091FF0B7091000C458B568B678B7A
:10528000708F4091010C5091020C6091030C709151
:10529000040C418F528F638F748F4091050C509195
:1052A000060C6091070C7091080C458F568F678F24
:1052B00070A34091090C50910A0C60910B0C7091F5
:1052C0000C0C41A352A363A374A32091FC0B9091F7
:1052D000FB0B291303C094E69093EA068093FC0B22
:1052E00080916F00826080936F0008959091FC0B15
:1052F0008091FB0B981306C080911E0C90911F0C9F
:10530000892B19F00E94CE1DF1CF0895EF92FF92E4
:105310000F931F93CF93DF937B018A01E9012091C3
:105320000E0C30910F0C4091100C5091110CFC019F
:1053300060817181828193810E947A780E94707E5F
:105340006093FD0B7093FE0B8093FF0B9093000C0A
:105350002091120C3091130C4091140C5091150CAB
:10536000F70160817181828193810E947A780E9425
:10537000707E6093010C7093020C8093030C9093E9
:10538000040C20E030E0A901F80160817181828184
:1053900093810E943F7C2091160C3091170C409114
:1053A000180C5091190C0E947A780E94707E6093BC
:1053B000050C7093060C8093070C9093080C2091B9
:1053C0001A0C30911B0C40911C0C50911D0C6881E3
:1053D00079818A819B810E947A780E94707E609395
:1053E000090C70930A0C80930B0C90930C0C909109
:1053F000FC0B8091FB0B981739F0DF91CF911F9137
:105400000F91FF90EF9014CF71DF80916F00982F74
:10541000927081FF05C080916F008D7F80936F0037
:105420004091FD0B5091FE0B6091FF0B7091000CB1
:10543000409304035093050360930603709307039E
:105440004091010C5091020C6091030C7091040C7E
:10545000409308035093090360930A0370930B036E
:105460004091050C5091060C6091070C7091080C4E
:1054700040930C0350930D0360930E0370930F033E
:105480004091090C50910A0C60910B0C70910C0C1E
:10549000409310035093110360931203709313030E
:1054A000992329F080916F00826080936F00DF91D3
:1054B000CF911F910F91FF90EF9008950F931F933D
:1054C000CF93DF93CEE0DCE007EC16E02991399131
:1054D0004991599160E070E080E89FE30E941B7D54
:1054E000F80161937193819391938F01FCE0CE3128
:1054F000DF0761F72DEA3CE049EA5CE065EA7CE021
:1055000081EA9CE003DFDF91CF911F910F9135CEAF
:105510002F923F924F925F926F927F928F929F92C3
:10552000AF92BF92CF92DF92EF92FF920F931F93B1
:10553000CF93DF93CDB7DEB7CB56D1090FB6F89432
:10554000DEBF0FBECDBFE0911E0CF0911F0CEF2B04
:1055500009F0E3C7DEAECDAEE9AE79016A015B01C9
:10556000FC0120910E0C30910F0C4091100C5091C9
:10557000110C60817181828193810E947A780E94EE
:10558000707EA3966CAF7DAF8EAF9FAFA397209137
:10559000120C3091130C4091140C5091150CD50144
:1055A0006D917D918D919C910E947A780E94707E80
:1055B000A7966CAF7DAF8EAF9FAFA7972091160CCB
:1055C0003091170C4091180C5091190CF601608124
:1055D0007181828193810E947A780E94707EAB965D
:1055E0006CAF7DAF8EAF9FAFAB9720911A0C30910F
:1055F0001B0C40911C0C50911D0CD7016D917D919D
:105600008D919C910E947A780E94707E2B966CAF4F
:105610007DAF8EAF9FAF2B9780910D0C83FF0EC097
:105620002B964CAC5DAC6EAC7FAC2B974092090CCA
:1056300050920A0C60920B0C70920C0CD8013C90AA
:1056400011964C9011974DA612965C90129759AAFC
:1056500013962C908091FC0B9091FB0B891B8F7003
:105660008F3019F40E94CE1DF5CF6090FC0BAC96E4
:105670006FAEAC978091FC0B082F10E018A70FA31A
:105680008091FD0B9091FE0BA091FF0BB091000C4F
:10569000A3968CAC9DACAEACBFACA397881A990A0C
:1056A000AA0ABB0A8091010C9091020CA091030CF4
:1056B000B091040CA7964CAC5DAC6EAC7FACA797D8
:1056C000481A590A6A0A7B0A4BA25CA26DA27EA202
:1056D0008091050C9091060CA091070CB091080CDC
:1056E000AB964CAC5DAC6EAC7FACAB97481A590A2C
:1056F0006A0A7B0A49A65AA66BA67CA68091090C69
:1057000090910A0CA0910B0CB0910C0C2B964CAC08
:105710005DAC6EAC7FAC2B97481A590A6A0A7B0ABB
:1057200009F49DC08091E50681113BC06091E606B9
:105730007091E7068091E8069091E9060E94837DCA
:1057400020912E0230912F026217730754F52B9689
:105750004CAC5DAC6EAC7FAC2B974092090C509278
:105760000A0C60920B0C70920C0CEEE7F1E1849144
:105770008F010F5F1F4F811103C0E3E6F1E104C009
:105780000E946E10F801F3CF84918F010F5F1F4FBD
:10579000882321F00E946E10F801F6CF412C512C85
:1057A000320139AD24E0329F80011124065D1D4F86
:1057B000C301B2010E941B78D8012D913D914D91FA
:1057C0005C910E947A786B017C0120E030E0A901B5
:1057D0000E94657E87FF04C0F7FAF094F7F8F09412
:1057E00060911A0C70911B0C80911C0C90911D0CF7
:1057F0000E94837D9B01AC01A8ECB0E00E94257C57
:105800000E941B78A70196010E94157887FF2AC085
:105810002B964CAC5DAC6EAC7FAC2B974092090CD8
:1058200050920A0C60920B0C70920C0CEEE7F1E1B6
:1058300084918F010F5F1F4F811103C0E4E4F1E1F8
:1058400004C00E946E10F801F3CF84918F010F5FA6
:105850001F4F882321F00E946E10F801F6CF412CD3
:10586000512C3201D501C4018827B7FD83959927B2
:10587000AA27BB27182F2BA13CA14DA15EA157FD44
:10588000126089A59AA5ABA5BCA5B7FD146077FCED
:10589000186009ADA4E00A9FC00111249C01265D97
:1058A0003D4F7901C301B2010E941B78D7012D91B0
:1058B0003D914D915C910E947A786B017C0120E0D2
:1058C00030E0A9010E94657E87FF04C0C701B601D0
:1058D000905802C0C701B60120E030E040E05FE32D
:1058E0000E943F7C0E94887D6DAB7EAB8FAB98AFF2
:1058F00081E54FA058A4849DF001859DF00D1124F1
:10590000E551F94F108216ABB501A401B7FE07C0EF
:1059100044275527BA01481959096A097B0981E5C5
:105920006FA078A4869DF001879DF00D1124E551AC
:10593000F94F458B568B678B708F8BA19CA1ADA1C6
:10594000BEA1B7FF07C0B095A095909581959F4FD8
:10595000AF4FBF4F21E50FA118A5209FF001219F58
:10596000F00D1124E551F94F818F928FA38FB48FE1
:1059700009A51AA52BA53CA537FF07C03095209592
:10598000109501951F4F2F4F3F4FE1E57E2E4FA001
:1059900058A4749CF001759CF00D1124E551F94F49
:1059A000058F168F278F30A34DA85EA86FA878ACFF
:1059B00041A252A263A274A23A01F62FE72F481720
:1059C00059076A077B0718F43C01FA2FEB2FC30134
:1059D000AF2FBE2F80179107A207B30710F4D9018C
:1059E000C8014DA85EA86FA878AC84159505A605DA
:1059F000B70510F4D301C20121E56FA078A4269D5C
:105A0000F001279DF00D1124E551F94F85A396A3D0
:105A1000A7A3B0A70697A105B10508F477C5DF01D4
:105A2000A95BBF4F8091DF069091E00611969C9391
:105A30008E9312968091E1069091E20611969C93C6
:105A40008E9312968091E3069091E4068D939C9339
:105A500079AC71A6452B462B472B09F0179881E5A9
:105A60000FA118A5809FF001819FF00D1124E55131
:105A7000F94F818D928DA38DB48D892B8A2B8B2B21
:105A800009F0169881E54FA058A4849DF001859DEA
:105A9000F00D1124E551F94F858D968DA78DB0A19C
:105AA000892B8A2B8B2B09F015984DA85EA86FA81F
:105AB00078AC45284628472809F431C58091240C44
:105AC000882319F081508093240C59AC511004C0E4
:105AD000149880E28093240C6090DB067090DC06C2
